{
  "contractName": "MissTeen",
  "abi": [
    {
      "constant": true,
      "inputs": [
        {
          "name": "",
          "type": "uint256"
        }
      ],
      "name": "candidates",
      "outputs": [
        {
          "name": "id",
          "type": "uint256"
        },
        {
          "name": "name",
          "type": "string"
        },
        {
          "name": "photoUrl",
          "type": "string"
        },
        {
          "name": "voteCount",
          "type": "uint256"
        }
      ],
      "payable": false,
      "stateMutability": "view",
      "type": "function"
    },
    {
      "constant": true,
      "inputs": [
        {
          "name": "",
          "type": "address"
        }
      ],
      "name": "voters",
      "outputs": [
        {
          "name": "",
          "type": "bool"
        }
      ],
      "payable": false,
      "stateMutability": "view",
      "type": "function"
    },
    {
      "inputs": [],
      "payable": false,
      "stateMutability": "nonpayable",
      "type": "constructor"
    },
    {
      "anonymous": false,
      "inputs": [
        {
          "indexed": true,
          "name": "_candidateId",
          "type": "uint256"
        }
      ],
      "name": "votedEvent",
      "type": "event"
    },
    {
      "constant": false,
      "inputs": [
        {
          "name": "_candidateId",
          "type": "uint256"
        }
      ],
      "name": "vote",
      "outputs": [],
      "payable": false,
      "stateMutability": "nonpayable",
      "type": "function"
    }
  ],
  "bytecode": "0x608060405234801561001057600080fd5b506100bb6040805190810160405280600881526020017f5472616d20416e68000000000000000000000000000000000000000000000000815250606060405190810160405280602a81526020017f687474703a2f2f7777772e64617070766965742e636f6d2f696d616765732f7481526020017f72616d616e682e6a70670000000000000000000000000000000000000000000081525061016a640100000000026401000000009004565b6101656040805190810160405280600881526020017f5472616d20416e68000000000000000000000000000000000000000000000000815250606060405190810160405280602a81526020017f687474703a2f2f7777772e64617070766965742e636f6d2f696d616765732f6d81526020017f79647579656e2e6a70670000000000000000000000000000000000000000000081525061016a640100000000026401000000009004565b6102af565b6002600081548092919060010191905055506080604051908101604052806002548152602001838152602001828152602001600081525060008060025481526020019081526020016000206000820151816000015560208201518160010190805190602001906101db92919061020a565b5060408201518160020190805190602001906101f892919061020a565b50606082015181600301559050505050565b828054600181600116156101000203166002900490600052602060002090601f016020900481019282601f1061024b57805160ff1916838001178555610279565b82800160010185558215610279579182015b8281111561027857825182559160200191906001019061025d565b5b509050610286919061028a565b5090565b6102ac91905b808211156102a8576000816000905550600101610290565b5090565b90565b6104d2806102be6000396000f300608060405260043610610057576000357c0100000000000000000000000000000000000000000000000000000000900463ffffffff1680630121b93f1461005c5780633477ee2e14610089578063a3ec138d146101a9575b600080fd5b34801561006857600080fd5b5061008760048036038101908080359060200190929190505050610204565b005b34801561009557600080fd5b506100b460048036038101908080359060200190929190505050610326565b604051808581526020018060200180602001848152602001838103835286818151815260200191508051906020019080838360005b838110156101045780820151818401526020810190506100e9565b50505050905090810190601f1680156101315780820380516001836020036101000a031916815260200191505b50838103825285818151815260200191508051906020019080838360005b8381101561016a57808201518184015260208101905061014f565b50505050905090810190601f1680156101975780820380516001836020036101000a031916815260200191505b50965050505050505060405180910390f35b3480156101b557600080fd5b506101ea600480360381019080803573ffffffffffffffffffffffffffffffffffffffff169060200190929190505050610486565b604051808215151515815260200191505060405180910390f35b600160003373ffffffffffffffffffffffffffffffffffffffff1673ffffffffffffffffffffffffffffffffffffffff16815260200190815260200160002060009054906101000a900460ff1615151561025d57600080fd5b60008111801561026f57506002548111155b151561027a57600080fd5b60018060003373ffffffffffffffffffffffffffffffffffffffff1673ffffffffffffffffffffffffffffffffffffffff16815260200190815260200160002060006101000a81548160ff02191690831515021790555060008082815260200190815260200160002060030160008154809291906001019190505550807ffff3c900d938d21d0990d786e819f29b8d05c1ef587b462b939609625b684b1660405160405180910390a250565b6000602052806000526040600020600091509050806000015490806001018054600181600116156101000203166002900480601f0160208091040260200160405190810160405280929190818152602001828054600181600116156101000203166002900480156103d85780601f106103ad576101008083540402835291602001916103d8565b820191906000526020600020905b8154815290600101906020018083116103bb57829003601f168201915b505050505090806002018054600181600116156101000203166002900480601f0160208091040260200160405190810160405280929190818152602001828054600181600116156101000203166002900480156104765780601f1061044b57610100808354040283529160200191610476565b820191906000526020600020905b81548152906001019060200180831161045957829003601f168201915b5050505050908060030154905084565b60016020528060005260406000206000915054906101000a900460ff16815600a165627a7a723058208a6c01c85ede7871eb94c779554434581646bf98fc2f6e67b099bf62dd001ee80029",
  "source": "pragma solidity ^0.4.24;\n\ncontract MissTeen {\n\n\t// Candidate data struct\n\tstruct Candidate {\n\t\tuint id;\n\t\tstring name;\n\t\tstring photoUrl;\n\t\tuint voteCount;\n\t}\n\n\t// Store candidates\n\tmapping(uint => Candidate) public candidates;\n\n\t// Store voters information\n\tmapping(address => bool) public voters;\n\n\t// Track number of voters\n\tuint numOfCandidate;\n\n\tevent votedEvent (\n\t\tuint indexed _candidateId\n\t);\n\n\t// Constructor\n\tconstructor () public {\n\t\taddCandidate(\"Tram Anh\", \"http://www.dappviet.com/images/tramanh.jpg\");\n\t\taddCandidate(\"Tram Anh\", \"http://www.dappviet.com/images/myduyen.jpg\");\t\n\t}\n\n\tfunction addCandidate (string _name, string _photoUrl) private {\n\t\tnumOfCandidate++;\n\t\tcandidates[numOfCandidate] = Candidate(numOfCandidate, _name, _photoUrl, 0);\n\t}\n\n\tfunction vote (uint _candidateId) public {\n\t\t\n\t\t// Require voter never voted before\n\t\trequire(!voters[msg.sender]);\n\n\t\trequire(_candidateId > 0 && _candidateId <= numOfCandidate);\n\n\t\tvoters[msg.sender] = true;\n\n\t\tcandidates[_candidateId].voteCount ++;\n\n\t\t// create voted event\n\t\tvotedEvent(_candidateId);\n\n\t}\n}",
  "sourcePath": "/Users/Paul/code/miss_teen/contracts/MissTeen.sol",
  "compiler": {
    "name": "solc",
    "version": "0.4.24+commit.e67f0147.Emscripten.clang"
  },
  "schemaVersion": "2.0.1",
  "updatedAt": "2018-07-31T08:50:45.497Z"
}